:020000040000fa
:080000000002040000000000f2
:020000040000fa
:10040000af802000007f2200000188000000000073
:100410000a00070011000700000020000000e000b3
:10042000020032000000020000000000880202000a
:10043000000000000040da000000fe004440a90077
:10044000000020000000e000030032000000200057
:10045000a00188004440a80000000600203c2000c5
:10046000010020001500370062004000e0804800d5
:10047000910188009001ba0062004000e0804800cd
:10048000910188009002ba0062004000e0804800bc
:100490000002eb006028e10004003a000059eb0084
:1004a0008301e900fdff3e00040037006128e10000
:1004b000010032000082eb00050007009101880076
:1004c0001001ba000200e000e7ff3a00000005005a
:1004d000910188008002780062004000e0804800be
:1004e0003559ba008301e900080032002559ba00e5
:1004f0008301e900050032000400e000f4ff32004f
:1005000015d9ba008301e900f1ff3a0000000600a6
:020000040000fa
:020000040002f8
:04aff800fff900005d
:020000040000fa
:10000800d4030000d4030000d4030000d40300008c
:10001800d4030000d4030000d4030000d40300007c
:10002800d4030000d4030000d4030000fc02000045
:10003800d4030000d4030000d4030000d40300005c
:10004800d4030000d4030000d4030000d40300004c
:10005800d4030000d4030000d4030000d40300003c
:10006800d4030000d4030000d4030000d40300002c
:10007800d4030000d4030000d4030000d40300001c
:10008800d4030000d4030000d4030000d40300000c
:10009800d4030000d4030000d4030000d4030000fc
:1000a800d4030000d4030000d4030000d4030000ec
:1000b800d4030000d4030000d4030000d4030000dc
:1000c800d4030000d4030000d4030000d4030000cc
:1000d800d4030000d4030000d4030000d4030000bc
:1000e800d4030000d4030000d4030000d4030000ac
:1000f800d4030000d4030000d4030000d40300009c
:10010800d4030000d4030000d4030000d40300008b
:10011800d4030000d4030000d4030000d40300007b
:10012800d4030000d4030000d4030000d40300006b
:10013800d4030000d4030000d4030000d40300005b
:10014800d4030000d4030000d4030000d40300004b
:10015800d4030000d4030000d4030000d40300003b
:10016800d4030000d4030000d4030000d40300002b
:10017800d4030000d4030000d4030000d40300001b
:10018800d4030000d4030000d4030000d40300000b
:10019800d4030000d4030000d4030000d4030000fb
:1001a800d4030000d4030000d4030000d4030000eb
:1001b800d4030000d4030000d4030000d4030000db
:1001c800d4030000d4030000d4030000d4030000cb
:1001d800d4030000d4030000d4030000d4030000bb
:1001e800d4030000d4030000d4030000d4030000ab
:0801f800d4030000d403000051
:020000040000fa
:10020800d4030000d4030000d4030000d40300008a
:10021800d4030000d4030000d4030000d40300007a
:10022800d4030000d4030000d4030000fc02000043
:10023800d4030000d4030000d4030000d40300005a
:10024800d4030000d4030000d4030000d40300004a
:10025800d4030000d4030000d4030000d40300003a
:10026800d4030000d4030000d4030000d40300002a
:10027800d4030000d4030000d4030000d40300001a
:10028800d4030000d4030000d4030000d40300000a
:10029800d4030000d4030000d4030000d4030000fa
:1002a800d4030000d4030000d4030000d4030000ea
:1002b800d4030000d4030000d4030000d4030000da
:1002c800d4030000d4030000d4030000d4030000ca
:1002d800d4030000d4030000d4030000d4030000ba
:1002e800d4030000d4030000d4030000d4030000aa
:1002f800d4030000d4030000d4030000d40300009a
:10030800d4030000d4030000d4030000d403000089
:10031800d4030000d4030000d4030000d403000079
:10032800d4030000d4030000d4030000d403000069
:10033800d4030000d4030000d4030000d403000059
:10034800d4030000d4030000d4030000d403000049
:10035800d4030000d4030000d4030000d403000039
:10036800d4030000d4030000d4030000d403000029
:10037800d4030000d4030000d4030000d403000019
:10038800d4030000d4030000d4030000d403000009
:10039800d4030000d4030000d4030000d4030000f9
:1003a800d4030000d4030000d4030000d4030000e9
:1003b800d4030000d4030000d4030000d4030000d9
:1003c800d4030000d4030000d4030000d4030000c9
:1003d800d4030000d4030000d4030000d4030000b9
:1003e800d4030000d4030000d4030000d4030000a9
:0803f800d4030000d40300004f
:020000040000fa
:100510000000fa003174200091407800f0c8b30068
:1005200000c060000044a00043e7b7005174200001
:100530009140780080cfb30000c0600045e7b7006d
:100540004567a9005174200091407800f0c8b300bd
:1005500000c0600045e7b70000f42f0000168800d7
:100560000000eb00201688000000eb00004088002f
:100570000000eb00104088000000eb0020408800e5
:100580001140800020408000490007004100070022
:100590000000eb0020088800411020009140780006
:1005a000f0ccb30000c0600004e1b70005e1a80092
:1005b0000000eb0000088800510a200091407800fc
:1005c000f0c8b30000c0600001c4b3000140700077
:1005d000a5e0b70010032000100888008460a9007f
:1005e0009460a8000000eb00000888000140fe00b5
:1005f00000000000fdff3700809fbe00821f7800d2
:100600000400fa003040800010079800304080005d
:10061000104078008040eb00014f78000004e000bb
:100620000200350012c0b300024f78001e00900097
:10063000900078001e4178000280fb00610060009d
:100640004701dd00f0f72f0080806000828070009d
:100650001e00900001087800004080000000e800c3
:10066000004088008460a9000080fa004f017800f3
:100670004f00be00004006000000fa00314080003c
:10068000110078000070a000800878000080fa0057
:10069000000006000000fa003140800011007800e0
:1006a0000070a100800878000080fa0000000600b9
:1006b0000400fa00000f7800110798003140800014
:1006c000110078000040a0008008780031408000d0
:1006d000110078000050a1008008780033408000ad
:1006e0001e007800ef406000130078008180fb005e
:1006f0006f81600001ff2f000100600002007000a8
:100700008009780031408000110078000040a1008d
:100710008008780031408000110078000050a0006f
:1007200080087800334080001e009000ef40600099
:10073000130078008180fb006f81600001ff2f00b3
:1007400001006000020070008009780031408000e4
:10075000110078000050a100800878000080fa00a5
:10076000000006000000fa00404080001080fb00fe
:100770004600de00614060000080fb000080fa005f
:04078000000006006f
:020000040000fa
:10078400060800000400000002000000c402c200c9
:100794000200000000080000060000000000000045
:0407a4000000000051
:020000040000fa
:0407a8000000fe004f
:00000001FF
