:020000040000fa
:080000000002040000000000f2
:020000040000fa
:100008009a0200009a0200009a0200009a02000078
:100018009a0200009a0200009a0200009a02000068
:100028009a0200009a0200009a0200009a02000058
:100038009a0200009a0200009a0200009a02000048
:020000040000fa
:020000040000fa
:100400000f8020000e7f22000e01880000000000f7
:10041000000020000000e000020032000001200087
:10042000200288000c000700c039200001002000d5
:1004300011000700000020000000e0000200320070
:1004400000000200000000009e0202000000000008
:100450000040da000000fe004440a9000000200037
:100460000000e0000300320000002000a00188002e
:100470004440a80000000600910188008000780038
:100480000000eb0015003700e280400032a0b4000d
:100490009101ba00e280400032a0b4009102ba009b
:1004a000e280400032a0b4000002eb00472bde00e7
:1004b000f507b200602ce10004003a000059eb009f
:1004c0008301e900fdff3e00040037006128e100e0
:1004d000010032000082eb00040007001101ba00a5
:1004e0000200e000e8ff3a00000006003159ba00bf
:1004f0008301e9000c0032002159ba008301e900b0
:10050000080032000400e00003003a00e2804000ee
:1005100032a0b400f5ff370011d9ba008301e90019
:10052000faff3a008100e800e180400032a0b40008
:0c053000000006000040da000000fe00a1
:020000040000fa
:10053c000000fa00143a800004c0a00004d0a1000e
:10054c0004e0a100143a8800243a80000480a10041
:10055c000490a10004a0a100243a88004567a900da
:10056c00243a800004c0a10004d0a10004e0a10042
:10057c00243a8800f4fd2f00f4168800e0a2a800ad
:10058c000002eb00240888000002eb00040888003d
:10059c00240880000440a1000450a1002408880015
:1005ac0005e1a8000002eb008408880084088000a4
:1005bc000440a0000450a0008408880011e1a800a9
:1005cc000002eb0034088800010037000000000036
:1005dc0035088000f4702200848f5200fbff360037
:1005ec0080c4b3001b00070050c6b30019000700fd
:1005fc00c0c6b30017000700c0c6b3001500070043
:10060c00f0c6b3001300070000c2b30011000700ce
:10061c0070c5b3000f000700f0c6b3000d00070053
:10062c0020c7b3000b000700c0c6b30009000700c9
:10063c0040c6b30007000700e0c2b3000500070086
:10064c00a0c0b30003000700d0c0b3000100070036
:10065c00e3ff37000600fa00404798004e42900036
:10066c00044f7800e0a2a9000002eb000408880007
:10067c00010037000000000005088000f49f2100f5
:10068c00848f5200fbff36000002eb001407980029
:10069c00180037009e4278000582fb006102620060
:1006ac0004427800e04f520002003200e0a2a800a1
:1006bc0001003700e0a2a9009e4278000582fb00f1
:1006cc000402d100044f78000002eb0004088800fb
:1006dc00010037000000000005088000f49f210095
:1006ec00848f5200fbff36001e0290000402e800cb
:1006fc00140798001e029000e70f5200e5ff34002b
:10070c00e0a2a8000002eb000408880001003700fa
:10071c000000000005088000f49f2100848f520027
:0c072c00fbff36000080fa000000060011
:020000040000fa
:0407380000000000bd
:020000040000fa
:020000040002f8
:04aff800fff900005d
:020000040000fa
:020000040002f8
:04affc007f3f000093
:00000001FF
