:020000040000fa
:080000000002040000000000f2
:020000040000fa
:100400008f8c2000807f2200000188000000000007
:100410000a00070011000700000020000000e000b3
:100420000200320000000200000000008a02020008
:10043000000000000040da000000fe004440a90077
:10044000000020000000e000030032000000200057
:10045000a00188004440a8000000060040362000ab
:10046000010020001600370062004000e0804800d4
:10047000910188009001ba0062004000e0804800cd
:10048000910188009002ba0062004000e0804800bc
:100490000002eb006028e10005003a008301e9005a
:1004a00007003300038009000059eb000400370007
:1004b0006128e100010032000082eb000500070026
:1004c000910188001001ba000200e000e6ff3a0046
:1004d0000000050091018800800278006200400061
:1004e000e08048003559ba008301e9000800320075
:1004f0002559ba008301e900050032000400e0003c
:10050000f4ff320015d9ba008301e900f1ff3a0087
:0405100000000600e1
:020000040000fa
:020000040002f8
:04aff800fff900005d
:020000040000fa
:100008006603000066030000660300006603000044
:100018006603000066030000660300006603000034
:100028006603000066030000660300006603000024
:100038006603000066030000660300006603000014
:020000040000fa
:020000040000fa
:100514000600fa003174200091407800f0c8b3005e
:1005240000c060000044a00043e7b70051742000fd
:100534009140780080cfb30000c0600045e7b70069
:100544004567a9005174200091407800f0c8b300b9
:1005540000c0600045e7b70000f02f0000168800d7
:100564000000eb00100798001e009000ae00900001
:100574004c000700f00f2000200798000000eb005b
:10058400000f7800060037000e80e8002400070002
:100594001e009000ae009000420007001e0fe8000d
:1005a400300020009e0f1000f7ff36005005200099
:1005b400200798000000eb00000f780006003700c9
:1005c4000e80e800160007001e009000ae009000a8
:1005d400340007001e0fe800300020009e0f1000ba
:1005e400f7ff3600a00a2000200798000000eb0067
:1005f400000f7800060037000e80e80008000700ae
:100604001e009000ae009000260007001e0fe800b8
:10061400300020009e0f1000f7ff3600d0ff370097
:100624000200fa00000f78001e00780090007800a5
:100634001e00780010009000808068001e00780082
:10064400010878000080fa00000006000600fa00a5
:10065400200798000000eb00100798000b003700fb
:100664000000eb00000f78000200370000000000db
:100674001e0fe8002e0090009e0f1000fbff3900b3
:100684001e0090000000e800100798009e009000f3
:100694002e009000808f5000f1ff39000080fa0096
:1006a400000006000400fa00008fbe001e0078005f
:1006b40010168800803e2000e4ff07000080fa0046
:0406c400000006002c
:020000040000fa
:0406c800000000002e
:020000040000fa
:0406cc000000fe002c
:00000001FF
