:020000040000fa
:080000000002040000000000f2
:020000040000fa
:100008009a0200009a0200009a0200009a02000078
:100018009a0200009a0200009a0200009a02000068
:100028009a0200009a0200009a0200009803000059
:100038009a0200009a0200009a020000a20400003e
:100048009a0200009a0200009a0200009a02000038
:100058009a0200009a0200009a0200009a02000028
:100068009a0200009a0200009a0200009a02000018
:100078009a0200009a0200009a0200009a02000008
:100088009a0200009a0200009a0200009a020000f8
:100098009a0200009a0200009a0200009a020000e8
:1000a8009a0200009a0200009a0200009a020000d8
:1000b8009a0200009a0200009a0200009a020000c8
:1000c8009a0200009a0200009a0200009a020000b8
:1000d8009a0200009a0200009a0200009a020000a8
:1000e8009a0200009a0200009a0200009a02000098
:1000f8009a0200009a0200009a0200009a02000088
:100108009a0200009a0200009a0200009a02000077
:100118009a0200009a0200009a0200009a02000067
:100128009a0200009a0200009a0200009a02000057
:100138009a0200009a0200009a0200009a02000047
:100148009a0200009a0200009a0200009a02000037
:100158009a0200009a0200009a0200009a02000027
:100168009a0200009a0200009a0200009a02000017
:100178009a0200009a0200009a0200009a02000007
:100188009a0200009a0200009a0200009a020000f7
:100198009a0200009a0200009a0200009a020000e7
:1001a8009a0200009a0200009a0200009a020000d7
:1001b8009a0200009a0200009a0200009a020000c7
:1001c8009a0200009a0200009a0200009a020000b7
:1001d8009a0200009a0200009a0200009a020000a7
:1001e8009a0200009a0200009a0200009a02000097
:0801f8009a0200009a020000c7
:020000040000fa
:100208009a0200009a0200009a0200009a02000076
:100218009a0200009a0200009a0200009a02000066
:100228009a0200009a0200009a0200009803000057
:100238009a0200009a0200009a020000a20400003c
:100248009a0200009a0200009a0200009a02000036
:100258009a0200009a0200009a0200009a02000026
:100268009a0200009a0200009a0200009a02000016
:100278009a0200009a0200009a0200009a02000006
:100288009a0200009a0200009a0200009a020000f6
:100298009a0200009a0200009a0200009a020000e6
:1002a8009a0200009a0200009a0200009a020000d6
:1002b8009a0200009a0200009a0200009a020000c6
:1002c8009a0200009a0200009a0200009a020000b6
:1002d8009a0200009a0200009a0200009a020000a6
:1002e8009a0200009a0200009a0200009a02000096
:1002f8009a0200009a0200009a0200009a02000086
:100308009a0200009a0200009a0200009a02000075
:100318009a0200009a0200009a0200009a02000065
:100328009a0200009a0200009a0200009a02000055
:100338009a0200009a0200009a0200009a02000045
:100348009a0200009a0200009a0200009a02000035
:100358009a0200009a0200009a0200009a02000025
:100368009a0200009a0200009a0200009a02000015
:100378009a0200009a0200009a0200009a02000005
:100388009a0200009a0200009a0200009a020000f5
:100398009a0200009a0200009a0200009a020000e5
:1003a8009a0200009a0200009a0200009a020000d5
:1003b8009a0200009a0200009a0200009a020000c5
:1003c8009a0200009a0200009a0200009a020000b5
:1003d8009a0200009a0200009a0200009a020000a5
:1003e8009a0200009a0200009a0200009a02000095
:0803f8009a0200009a020000c5
:020000040000fa
:10040000af8020000e7f22000e0188000000000057
:10041000000020000000e000020032000001200087
:10042000200288000c0007008063200001002000eb
:1004300011000700000020000000e0000200320070
:1004400000000200000000009e0202000000000008
:100450000040da000000fe004440a9000000200037
:100460000000e0000300320000002000a00188002e
:100470004440a80000000600910188008000780038
:100480000000eb0015003700e280400032a0b4000d
:100490009101ba00e280400032a0b4009102ba009b
:1004a000e280400032a0b4000002eb00472bde00e7
:1004b000f507b200602ce10004003a000059eb009f
:1004c0008301e900fdff3e00040037006128e100e0
:1004d000010032000082eb00040007001101ba00a5
:1004e0000200e000e8ff3a00000006003159ba00bf
:1004f0008301e9000c0032002159ba008301e900b0
:10050000080032000400e00003003a00e2804000ee
:1005100032a0b400f5ff370011d9ba008301e90019
:10052000faff3a008100e800e180400032a0b40008
:0c053000000006000040da000000fe00a1
:020000040000fa
:10053c000600fa00143a800004c0a00004d0a10008
:10054c0004e0a100143a8800243a80000480a10041
:10055c000490a10004a0a100243a88004567a900da
:10056c00243a800004c0a10004d0a10004e0a10042
:10057c00243a880004fc2300041688000002eb00d7
:10058c00241688000002eb00044088000002eb00f7
:10059c00144088000002eb002440880015408000c5
:1005ac002440800085007800040078007501070065
:1005bc006d0107000002eb0024088800240880006d
:1005cc000440a0000450a1002408880005e1a80004
:1005dc000002eb00040888002405800004c0a10080
:1005ec0004d0a10004e0a0002405880034422f00b0
:1005fc00140888000002eb0084088800840880003e
:10060c000440a0000450a1008408880011e1a80057
:10061c000002eb00340888003405800004c0a00000
:10062c0004d0a10004e0a0003405880034422f005f
:10063c00640888008460a90084e0a90081e0a90016
:10064c009460a80094e0a8004400200004088800ee
:10065c000002eb00340888000140fe00000000009e
:10066c00140280004522de0067426200044f7800cd
:10067c009002800010079800ff3ffc0014028000dd
:10068c000450a0000460a0000470a00014028800b4
:10069c001e02900094028800000088000540800033
:1006ac00a4002000110009008402d8000002780088
:1006bc002440880005408000a4002000110009009f
:1006cc008402d80001027800144088009402800053
:1006dc0024079800ff3ffc001e427800674262002e
:1006ec000482fb00670262004522dd0016028000d6
:1006fc00f5f12f00850263000502720014028800d8
:10070c002e029000940288000000880015408000a2
:10071c00244080008500780004007800190107004f
:10072c00cdff3700801f7800849fbe00861f7800a5
:10073c000a00fa00140280004522de0067426200c3
:10074c00044f78009402800014079800ff3ffc00cf
:10075c00140280000450a0000460a0000470a000eb
:10076c00140288001e029000940288000000880089
:10077c00044080000402e80004408800044080002b
:10078c000402e80004408800044080000402e800f1
:10079c0004408800044080000402e8000440880003
:1007ac00044080000402e8000440880004408000fb
:1007bc000402e80004408800044080000402e800c1
:1007cc0004408800044080000402e80004408800d3
:1007dc00044080000402e8000440880004408000cb
:1007ec000402e8000440880094028000240798006a
:1007fc00ff3ffc001e427800674262000482fb004f
:10080c00670262004522dd0016028000f5f12f0020
:10081c008502630005027200140288002e0290000b
:10082c009402880000008800000000001402800080
:10083c004522de0067426200044f7800940280007b
:10084c0034079800ff3ffc00140280000450a00005
:10085c000460a0000470a000140288003e02900006
:10086c009402880000008800044080000402e80024
:10087c0004408800044080000402e8000440880022
:10088c00044080000402e80004408800044080001a
:10089c000402e80004408800044080000402e800e0
:1008ac0004408800044080000402e80004408800f2
:1008bc00044080000402e8000440880004408000ea
:1008cc000402e80004408800044080000402e800b0
:1008dc0004408800044080000402e80004408800c2
:1008ec009402800044079800ff3ffc001e427800f1
:1008fc00674262000482fb00670262004522dd0051
:10090c0016028000f5f12f008502630005027200cb
:10091c00140288004e0290009402880000008800a7
:10092c008460a9000080fa004f0378004f02be00db
:10093c004f00780000400600801f7800849fbe00a6
:10094c00861f78000a00fa00140280004522de009f
:10095c0067426200044f78009402800014079800ec
:10096c00ff3ffc00140280000450a0000460a000b3
:10097c000470a000140288001e02900094028800eb
:10098c0000008800044080000402e9000440880054
:10099c00044080000402e900044088000440800008
:1009ac000402e90004408800044080000402e900cd
:1009bc0004408800044080000402e90004408800e0
:1009cc00044080000402e9000440880004408000d8
:1009dc000402e90004408800044080000402e9009d
:1009ec0004408800044080000402e90004408800b0
:1009fc00044080000402e900044088009402800056
:100a0c0024079800ff3ffc001e42780067426200fa
:100a1c000482fb00670262004522dd0016028000a2
:100a2c00f5f12f00850263000502720014028800a4
:100a3c002e02900094028800000088000000000044
:100a4c00140280004522de0067426200044f7800e9
:100a5c009402800034079800ff3ffc0014028000d1
:100a6c000450a0000460a0000470a00014028800d0
:100a7c003e02900094028800000088000440800030
:100a8c000402e90004408800044080000402e900ec
:100a9c0004408800044080000402e90004408800ff
:100aac00044080000402e9000440880004408000f7
:100abc000402e90004408800044080000402e900bc
:100acc0004408800044080000402e90004408800cf
:100adc00044080000402e9000440880004408000c7
:100aec000402e90004408800044080000402e9008c
:100afc00044088009402800044079800ff3ffc00eb
:100b0c001e427800674262000482fb0067026200aa
:100b1c004522dd0016028000f5f12f0085026300ee
:100b2c0005027200140288004e02900094028800a4
:100b3c000000880084e0a9000080fa004f037800d0
:100b4c004f02be004f007800004006000000fa0083
:100b5c00354080001502780004e0a000840a78007b
:100b6c000080fa00000006000000fa00354080000a
:100b7c001502780004e0a100840a78000080fa00d5
:100b8c00000006000400fa00000f7800110798001e
:100b9c0035408000150278000440a000840a7800db
:100bac0035408000150278000450a100840a7800ba
:100bbc00354080001e027800044278006f426200cb
:100bcc000482fb006f0262009503780006ff2f0081
:100bdc000683630006027200840a780035408000a8
:100bec00150278000440a100840a7800354080008a
:100bfc00150278000450a000840a7800354080006b
:100c0c001e029000044278006f4262000482fb00d6
:100c1c006f0262009503780006ff2f0006836300c5
:100c2c0006027200840a78003540800015027800b4
:100c3c000450a100840a78000080fa00000006002d
:100c4c000000fa0044408000140278004622de00c6
:100c5c00614262000482fb00040078000080fa000c
:040c6c00000006007e
:020000040000fa
:100c70000008000006000000000000000608000058
:100c80000400000002000000c402c20002000000d4
:040c90000000000060
:020000040000fa
:020000040002f8
:04aff800fff900005d
:00000001FF
