:020000040000fa
:080000000002040000000000f2
:020000040000fa
:100400004f802000807f2200000188000000000053
:100410000a00070011000700000020000000e000b3
:100420000200320000000200000000008a02020008
:10043000000000000040da000000fe004440a90077
:10044000000020000000e000030032000000200057
:10045000a00188004440a80000000600a03720004a
:10046000010020001600370062004000e0804800d4
:10047000910188009001ba0062004000e0804800cd
:10048000910188009002ba0062004000e0804800bc
:100490000002eb006028e10005003a008301e9005a
:1004a00007003300038009000059eb000400370007
:1004b0006128e100010032000082eb000500070026
:1004c000910188001001ba000200e000e6ff3a0046
:1004d0000000050091018800800278006200400061
:1004e000e08048003559ba008301e9000800320075
:1004f0002559ba008301e900050032000400e0003c
:10050000f4ff320015d9ba008301e900f1ff3a0087
:0405100000000600e1
:020000040000fa
:020000040002f8
:04aff800fff900005d
:020000040000fa
:1000080086030000860300008603000086030000c4
:1000180086030000860300008603000086030000b4
:1000280086030000860300008603000086030000a4
:100038008603000086030000860300008603000094
:020000040000fa
:020000040000fa
:100514000800fa003174200091407800f0c8b3005c
:1005240000c060000044a00043e7b70051742000fd
:100534009140780080cfb30000c0600045e7b70069
:100544004567a9005174200091407800f0c8b300b9
:1005540000c0600045e7b70000f42f0000168800d3
:100564000000eb0020168800000328002008880003
:100574000000eb00200798000000eb001007980033
:100584000000eb00000f78009e0090001e00780031
:1005940017000700000000000000000041000700f1
:1005a400300798002e0090000000e8002007980013
:1005b4002e009000a2002000110009000280d80043
:1005c400000f78002e009000a20020001100090006
:1005d4000280d8008000fd00100798003900070051
:1005e4009e0090001e00780001000700ebff37001a
:1005f4000400fa00000f7800110798000140800001
:10060400110078000040a0008008780001408000bc
:10061400110078000050a100800878000340800099
:100624001e007800ef406000130078008180fb001a
:100634006f81600001ff2f00010060000200700064
:100644008009780001408000110078000040a1007a
:100654008008780001408000110078000050a0005c
:1006640080087800034080001e009000ef40600086
:10067400130078008180fb006f81600001ff2f0070
:1006840001006000020070008009780001408000d1
:10069400110078000050a100800878000080fa0062
:1006a400000006000000fa001040800010007800ee
:1006b4004600de00614060000080fb000080fa001c
:1006c400000006000200fa000000eb00000f7800b2
:1006d40002003700000000001e0fe8000080eb005d
:1006e4009e0f1000fbff3a000080fa000000060095
:020000040000fa
:1006f400000800000400000002000000c402c20060
:080704000200000000000000eb
:020000040000fa
:04070c000000fe00eb
:00000001FF
