:020000040000fa
:080000000002040000000000f2
:020000040000fa
:10040000ef802000007f2200000188000000000033
:100410000a00070011000700000020000000e000b3
:10042000020032000000020000000000ac040200e4
:10043000000000000040da000000fe004440a90077
:10044000a00020000000e0000300320000002000b7
:10045000a00188004440a80000000600405620008b
:10046000010020001500370062004000e0804800d5
:10047000910188009001ba0062004000e0804800cd
:10048000910188009002ba0062004000e0804800bc
:100490000002eb006028e10004003a000059eb0084
:1004a0008301e900fdff3e00040037006128e10000
:1004b000010032000082eb00050007009101880076
:1004c0001001ba000200e000e7ff3a00000005005a
:1004d000910188008002780062004000e0804800be
:1004e0003559ba008301e900080032002559ba00e5
:1004f0008301e900050032000400e000f4ff32004f
:1005000015d9ba008301e900f1ff3a0000000600a6
:020000040000fa
:020000040002f8
:04aff800fff900005d
:020000040000fa
:020000040002f8
:04affc007f3f000093
:020000040000fa
:10000800720500007205000072050000720500000c
:1000180072050000720500007205000072050000fc
:1000280072050000720500007205000072050000ec
:1000380072050000720500007205000072050000dc
:020000040000fa
:020000040000fa
:100510005265000061640000792000003e0d00007b
:040520000a000000cd
:020000040000fa
:100524000000fa00d3e2a900d3c2a8002062a80008
:10053400206820004011880021e2a800004020002b
:1005440010118800d5e2a800df82a900dfa2a8006c
:100554003062a80020682000c011880031e2a800a1
:100564000040200090118800e1a2a8000080fa0059
:10057400000006000200fa00004f7800d5c2bf0058
:100584000044b2000004e000fcff3a0023c2bf00b4
:10059400624060000004e000fcff3a001e00fb0023
:1005a400201188000080fa00000006000200fa0012
:1005b400004f7800e1c2bf00704060000004e0001a
:1005c400fcff3a0033c2bf00624060000004e00058
:1005d400fcff3a001e00fb00a01188000080fa0016
:1005e400000006000200fa00d5e2a90022c2bf0002
:1005f400614060000004e000fcff32003011800024
:10060400004f7800d5e2a8001e00fb000080fa002d
:10061400000006000200fa00e1a2a90032c2bf00f5
:10062400614060000004e000fcff3200b011800073
:10063400004f7800e1a2a8001e00fb000080fa0031
:10064400000006000600fa00204798000000eb00b6
:10065400000f780000408000200798002e009000d2
:10066400e10f50000e0032002e009000e20f500007
:10067400120032002e0090000000e0000100320061
:1006840016003700d5c2bf000044b2000004e000e9
:1006940014003a00100020000040880011003700c8
:1006a40023c2bf00624060000004e0000d003a0075
:1006b40020002000004088000a0037002e409000ef
:1006c4000000fb002011880010002000000f7800bb
:1006d4000000eb0000408800020037000000eb003f
:1006e400004088001e0078000080fa000000060028
:1006f4000600fa00100798000000eb00000f7800d5
:1007040010408000200798002e0090000000e000b8
:10071400040032002e009000e10f5000050032006a
:1007240012003700d5e2a900100020001040880014
:100734001000370022c2bf00614060000004e000e6
:100744000c00320030118000804078001e009000c0
:100754000148780010002000000f7800d5e2a800be
:100764000000eb0010408800020037000000eb009e
:10077400104088001e0078000080fa000000060087
:100784000600fa00204798000000eb00000f7800f4
:1007940020408000200798002e009000e10f5000b8
:1007a4000e0032002e009000e20f500012003200c2
:1007b4002e0090000000e000010032001600370017
:1007c400e1c2bf00704060000004e00014003a0081
:1007d40010002000204088001100370033c2bf0001
:1007e400624060000004e0000d003a002000200098
:1007f400204088000a0037002e4090000000fb00d3
:10080400a011880010002000000f78000000eb0009
:1008140020408800020037000000eb0020408800e0
:100824001e0078000080fa00000006000600fa00ae
:10083400100798000000eb00000f780030408000a3
:10084400200798002e0090000000e0000400320011
:100854002e009000e10f5000050032001200370016
:10086400e1a2a900100020003040880010003700e9
:1008740032c2bf00614060000004e0000c0032009e
:10088400b0118000804078001e009000014878007c
:1008940010002000000f7800e1a2a8000000eb0087
:1008a40030408800020037000000eb003040880030
:1008b4001e0078000080fa00000006000400fa0020
:1008c400100798000000eb00000f780006003700c6
:1008d4009e0078001e0090000080400010407800c8
:1008e40024ff07001e0fe8009e0078001e00900001
:1008f40000804000104078000004e000f4ff3a005b
:100904000080fa00000006000400fa0010079800b6
:100914000000eb00000f7800060037009e0078000e
:100924001e00900000804000104078001fff070068
:100934001e0fe8009e0078001e009000008040001a
:10094400104078000004e000f4ff3a000080fa0050
:040954000000060099
:020000040000fa
:100958000c00fa003174200091407800f0c8b30010
:1009680000c060000044a00043e7b70051742000b5
:100978009140780080cfb30000c0600045e7b70021
:100988004567a9005174200091407800f0c8b30071
:1009980000c0600045e7b70034000700dffe07002d
:1009a80080282800c4ff070080282800d5ff0700fa
:1009b8000000eb00300798000000eb0020079800cb
:1009c8000000eb00100798000000eb00000f780013
:1009d800000037006a00470044ff0700e10f50009d
:1009e80004003a0010002000100798002e489000dc
:1009f800004f98006b0047008bff0700e10f500085
:100a080004003a0010002000000f78003e489000d3
:100a1800104f98001e0090000000e000080032000f
:100a28000e48900055ff0700200798002e00900000
:100a38000000e000020032000000eb001007980000
:100a48001e00e000e3ff32001e489000fcfe070095
:100a5800300798003e0090000000e000ddff320003
:0c0a68000000eb00000f7800daff370000
:020000040000fa
:100a74000000fa000000eb00200888000000eb00f2
:100a8400000888004110200091407800f0ccb300a9
:100a940000c0600004e1b70005e1a8000000eb001d
:100aa40080088800011120009140780000c3b30041
:100ab40000c0700010e1b70011e1a8000080fa0046
:040ac4000000060028
:020000040000fa
:100ac8000808000006000000000000000008000000
:0c0ad8000800000000000000000000000a
:020000040000fa
:040ae4000000fe0010
:00000001FF
