:020000040000fa
:080000000002040000000000f2
:020000040000fa
:10040000af952000007f220000018800000000005e
:100410000a00070011000700000020000000e000b3
:100420000200320000000200000000003e03020053
:10043000000000000040da000000fe004440a90077
:10044000000020000000e000030032000000200057
:10045000a00188004440a8000000060040382000a9
:10046000010020001500370062004000e0804800d5
:10047000910188009001ba0062004000e0804800cd
:10048000910188009002ba0062004000e0804800bc
:100490000002eb006028e10004003a000059eb0084
:1004a0008301e900fdff3e00040037006128e10000
:1004b000010032000082eb00050007009101880076
:1004c0001001ba000200e000e7ff3a00000005005a
:1004d000910188008002780062004000e0804800be
:1004e0003559ba008301e900080032002559ba00e5
:1004f0008301e900050032000400e000f4ff32004f
:1005000015d9ba008301e900f1ff3a0000000600a6
:10051000881f7800704480000000e0000100320075
:1005200000000100404480000000e00001003200b3
:1005300000000100304080000000e00001003200b7
:1005400000000100004080000000e00001003200d7
:1005500000000100008920001004e00026003a009d
:1005600050448000614480000004eb00d26026000b
:10057000930120003b000700f2352f00e3c6230063
:1005800000004100818049000804e800e80f5400a1
:10059000f6ff3a00504488006144880088802000bb
:1005a000d260260093012000504480006144800006
:1005b0002c000700f2352f00e3c6230000004100a5
:1005c000818049005044880061448800009cbe003e
:1005d00080882000800f5400f1ff3a002044800002
:1005e00031448000104088002140880011c0b300d1
:1005f0000089200001487800d26026009301200085
:10060000504480006144800016000700f2352f003e
:10061000e3c6230000004100818049005044880067
:100620006144880022802000120178007f0161006f
:100630004211dd0083802000030141001202be0050
:1006400014408800254088000089be0010408000ca
:10065000214080004008de0000f0a1004f04780037
:1006600000000600020ab900001bb9000200b80031
:0c067000810042008100430000000600f1
:020000040000fa
:020000040002f8
:04aff800fff900005d
:020000040000fa
:100008009a0300009a0300009a0300009a03000074
:100018009a0300009a0300009a0300009a03000064
:100028009a0300009a0300009a0300009a03000054
:100038009a0300009a0300009a0300009a03000044
:020000040000fa
:020000040000fa
:10067c000200fa003174200091407800f0c8b300f9
:10068c0000c060000044a00043e7b7005174200094
:10069c009140780080cfb30000c0600045e7b70000
:1006ac004567a9005174200091407800f0c8b30050
:1006bc0000c0600045e7b70000ff2f00001688005f
:1006cc000000eb0010168800000000008dff0700f2
:1006dc00000f78001e007800620020001100090055
:1006ec000200d8008000fd00000f78001e0fe8000b
:0c06fc001e00780010168800f3ff370085
:020000040000fa
:10070800880800000a000000020000000000010044
:1007180000000000000000000000000000080000c9
:0c0728008800000000000000000000003d
:020000040000fa
:040734000000fe00c3
:00000001FF
