:020000040000fa
:080000000002040000000000f2
:020000040000fa
:100400000f802000807f2200000188000000000093
:10041000050007000c000700800202000000000039
:100420000040da000000fe004440a9000000200067
:100430000000e0000300320000002000a00188005e
:100440004440a80000000600c03820000100200041
:100450001600370062004000e080480091018800eb
:100460009001ba0062004000e080480091018800dd
:100470009002ba0062004000e08048000002eb00f9
:100480006028e10005003a008301e900070033001d
:10049000038009000059eb00040037006128e100e7
:1004a000010032000082eb00050007009101880086
:1004b0001001ba000200e000e6ff3a00000005006b
:1004c000910188008002780062004000e0804800ce
:1004d0003559ba008301e900080032002559ba00f5
:1004e0008301e900050032000400e000f4ff32005f
:1004f00015d9ba008301e900f1ff3a0000000600b7
:100500000a00fa003174200091407800f0c8b3006e
:1005100000c060000044a00043e7b7005174200011
:100520009140780080cfb30000c0600045e7b7007d
:100530004567a9005174200091407800f0c8b300cd
:1005400000c0600045e7b7000080eb00601988003c
:10055000202c2000000f780000f02f0000168800eb
:1005600010002000301688009e00780011007800ee
:100570000040a000800878009e00780011007800fc
:100580000050a000800878000000eb0010079800e1
:10059000000037001e0078008000eb0001087800a2
:1005a0000000eb0040079800380037004e00900034
:1005b000a2002000110009000280d8002007980046
:1005c0004e009000a2002000110009000280d80017
:1005d0008000fd00300798002e009000ef40600082
:1005e0009e017800130078008180fb006f8160001d
:1005f00001ff2f00010060000200700080097800f8
:100600009e007800110078000040a100800878006a
:100610009e007800110078000040a000800878005b
:100620003e009000ef4060009e01780013007800cb
:100630008180fb006f81600001ff2f0001006000de
:1006400002007000800978009e0078001100780098
:100650000050a100800878009e007800110078000a
:100660000050a00080087800401f20000c00070008
:10067000100798001e009000e10f5000c5ff3200e7
:100680004e0090000000e80040079800ce00900067
:1006900030062000808f5000c4ff3600bdff3700b9
:1006a0000800fa00200798000000eb0010079800ef
:1006b000100037000000eb00000f78000700370043
:1006c00040168000e10f500003003a0010002000a7
:1006d000300798000d0037001e0fe8002e00900034
:1006e0009e0f1000f6ff39001e0090000000e80089
:1006f000100798009e0090002e009000808f500000
:10070000ecff39000000eb00300798003e0090003d
:080710000080fa000000060061
:020000040000fa
:020000040002f8
:04aff800fff900005d
:020000040000fa
:100008008e0300008e0300008e0300008e030000a4
:100018008e0300008e0300008e0300008e03000094
:100028008e0300008e0300008e0300008e03000084
:100038008e0300008e0300008e0300008e03000074
:020000040000fa
:020000040000fa
:0407180000000000dd
:020000040000fa
:04071c000000fe00db
:00000001FF
