:020000040000fa
:080000000002040000000000f2
:020000040000fa
:100008009a0200009a0200009a0200009a02000078
:100018009a0200009a0200009a0200009a02000068
:100028009a0200009a0200009a0200009a02000058
:100038009a0200009a0200009a0200009a02000048
:020000040000fa
:020000040000fa
:100400004f8020000e7f22000e01880000000000b7
:10041000000020000000e000020032000001200087
:10042000200288000c000700e038200001002000b6
:1004300011000700000020000000e0000200320070
:1004400000000200000000009e0202000000000008
:100450000040da000000fe004440a9000000200037
:100460000000e0000300320000002000a00188002e
:100470004440a80000000600910188008000780038
:100480000000eb0015003700e280400032a0b4000d
:100490009101ba00e280400032a0b4009102ba009b
:1004a000e280400032a0b4000002eb00472bde00e7
:1004b000f507b200602ce10004003a000059eb009f
:1004c0008301e900fdff3e00040037006128e100e0
:1004d000010032000082eb00040007001101ba00a5
:1004e0000200e000e8ff3a00000006003159ba00bf
:1004f0008301e9000c0032002159ba008301e900b0
:10050000080032000400e00003003a00e2804000ee
:1005100032a0b400f5ff370011d9ba008301e90019
:10052000faff3a008100e800e180400032a0b40008
:0c053000000006000040da000000fe00a1
:020000040000fa
:10053c000a00fa00143a800004c0a00004d0a10004
:10054c0004e0a100143a8800243a80000480a10041
:10055c000490a10004a0a100243a88004567a900da
:10056c00243a800004c0a10004d0a10004e0a10042
:10057c00243a880004f42f00041688000002eb00d3
:10058c002416880004032800240888000002eb00cd
:10059c00040f78000002eb00140798000002eb0037
:1005ac00240798000002eb0034079800ae0090007e
:1005bc003e0090001e0007000f0007004b000700d4
:1005cc0000027800440798001e027800e00f5200e9
:1005dc0003003200e10f520002003200020037002b
:1005ec0004003700030037000002eb00040f780012
:1005fc0000000000f1ff37000000fa000540800009
:10060c00150278000470a000840a78000080fa00bb
:10061c00000006000000fa0005408000150278007a
:10062c000470a100840a78000080fa000000060023
:10063c000400fa00000f78001107980005408000b4
:10064c00150278000440a000840a78000540800060
:10065c00150278000450a100840a7800054080003f
:10066c001e027800044278006f4262000482fb0094
:10067c006f0262009503780006ff2f00068363006b
:10068c0006027200840a780005408000150278008a
:10069c000440a100840a780005408000150278000f
:1006ac000450a000840a7800054080001e029000cf
:1006bc00044278006f4262000482fb006f02620009
:1006cc009503780006ff2f00068363000602720074
:1006dc00840a780005408000150278000450a100bf
:1006ec00840a78000080fa00000006000000fa007e
:1006fc0014408000140278004622de006142620041
:10070c000482fb00040078000080fa000000060060
:020000040000fa
:10071c00000800000400000002000000c402c20037
:08072c000200000000000000c3
:020000040000fa
:020000040002f8
:04aff800fff900005d
:00000001FF
