:020000040000fa
:080000000002040000000000f2
:020000040000fa
:100400008f8c2000807f2200000188000000000007
:10041000050007000c000700ce02020000000000eb
:100420000040da000000fe004440a9000000200067
:100430000000e0000300320000002000a00188005e
:100440004440a80000000600a03520000100200064
:100450001600370062004000e080480091018800eb
:100460009001ba0062004000e080480091018800dd
:100470009002ba0062004000e08048000002eb00f9
:100480006028e10005003a008301e900070033001d
:10049000038009000059eb00040037006128e100e7
:1004a000010032000082eb00050007009101880086
:1004b0001001ba000200e000e6ff3a00000005006b
:1004c000910188008002780062004000e0804800ce
:1004d0003559ba008301e900080032002559ba00f5
:1004e0008301e900050032000400e000f4ff32005f
:1004f00015d9ba008301e900f1ff3a0000000600b7
:100500000600fa0010079800210798009e0090004e
:100510002e009000008f68001e0078000080fa0016
:10052000000006000600fa00200798000000eb001b
:10053000100798000b0037000000eb00000f780058
:1005400002003700000000001e0fe8002e0090009f
:100550009e0f1000fbff39001e0090000000e80015
:10056000100798009e0090002e009000808f500091
:10057000f1ff39000080fa00000006000200fa00d6
:10058000000f78001e00780010168800803e2000c2
:10059000e4ff07000080fa00000006000400fa00f3
:1005a0003174200091407800f0c8b30000c06000b2
:1005b0000044a00043e7b700517420009140780048
:1005c00080cfb30000c0600045e7b7004567a900d1
:1005d0005174200091407800f0c8b30000c0600062
:1005e00045e7b70000f02f00001688000000eb0080
:1005f000000f78001e007800e0ff07000000eb000d
:100600001007980009003700f10f20001e00780045
:10061000bbff0700000f78001e007800d7ff07001f
:100620001e0090000000e800100798001e009000d7
:10063000e30f5000f4ff36000000eb0010079800b5
:1006400009003700510520001e007800acff0700ac
:10065000000f78001e007800c8ff07001e00900001
:100660000000e800100798001e009000e30f500003
:10067000f4ff36000000eb00100798000900370077
:10068000a10a20001e0078009dff0700000f7800df
:100690001e007800b9ff07001e0090000000e8006f
:1006a000100798001e009000e30f5000f4ff360082
:0406b000ceff370042
:020000040000fa
:020000040002f8
:04aff800fff900005d
:020000040000fa
:100008005c0300005c0300005c0300005c0300006c
:100018005c0300005c0300005c0300005c0300005c
:100028005c0300005c0300005c0300005c0300004c
:100038005c0300005c0300005c0300005c0300003c
:020000040000fa
:020000040000fa
:0406b4000000000042
:020000040000fa
:0406b8000000fe0040
:00000001FF
