:020000040000fa
:080000000002040000000000f2
:020000040000fa
:100400000f802000007f2200000188000000000013
:100410000a00070011000700000020000000e000b3
:10042000020032000000020000000000880202000a
:10043000000000000040da000000fe004440a90077
:10044000000020000000e000030032000000200057
:10045000a00188004440a800000006006038200089
:10046000010020001500370062004000e0804800d5
:10047000910188009001ba0062004000e0804800cd
:10048000910188009002ba0062004000e0804800bc
:100490000002eb006028e10004003a000059eb0084
:1004a0008301e900fdff3e00040037006128e10000
:1004b000010032000082eb00050007009101880076
:1004c0001001ba000200e000e7ff3a00000005005a
:1004d000910188008002780062004000e0804800be
:1004e0003559ba008301e900080032002559ba00e5
:1004f0008301e900050032000400e000f4ff32004f
:1005000015d9ba008301e900f1ff3a0000000600a6
:020000040000fa
:020000040002f8
:04aff800fff900005d
:020000040000fa
:020000040002f8
:04affc007f3f000093
:020000040000fa
:1000080088030000880300008803000088030000bc
:1000180088030000880300008803000088030000ac
:10002800880300008803000088030000880300009c
:10003800880300008803000088030000880300008c
:020000040000fa
:020000040000fa
:100510000000fa003174200091407800f0c8b30068
:1005200000c060000044a00043e7b7005174200001
:100530009140780080cfb30000c0600045e7b7006d
:100540004567a9005174200091407800f0c8b300bd
:1005500000c0600045e7b700f0fd2f00f0168800ee
:10056000e0a2a8000000eb00200888000000eb00db
:10057000000888004110200091407800f0ccb300c2
:1005800000c0600004e1b70005e1a8000000eb0036
:1005900080088800011120009140780000c3b3005a
:1005a00000c0700010e1b70011e1a8000000eb00ee
:1005b000300888000100370000000000310880008a
:1005c000f0702200808f5000fbff360080c4b30023
:1005d0001b00070050c6b30019000700c0c6b300d7
:1005e00017000700c0c6b30015000700f0c6b3002f
:1005f0001300070000c2b3001100070070c5b3006c
:100600000f000700f0c6b3000d00070020c7b300bd
:100610000b000700c0c6b3000900070040c6b300c6
:1006200007000700e0c2b30005000700a0c0b30048
:1006300003000700d0c0b30001000700e3ff37004c
:100640000600fa00404798004e409000204798006e
:10065000e0a2a9000000eb000008880001003700bc
:100660000000000001088000f09f2100808f5000f2
:10067000fbff36000000eb00000f7800150037008c
:100680002e4090000080fb00610060000004e0004c
:1006900002003200e0a2a80001003700e0a2a90099
:1006a0002e4090000080fb000000d1002047980001
:1006b0000000eb0000088800010037000000000087
:1006c00001088000f09f2100808f5000fbff360062
:1006d0001e0fe800700020009e0f1000e8ff34009d
:1006e000e0a2a8000000eb0000088800010037002d
:1006f0000000000001088000f09f2100808f500062
:0c070000fbff36000080fa00000006003d
:020000040000fa
:04070c0000000000e9
:020000040000fa
:040710000000fe00e7
:00000001FF
