:020000040000fa
:080000000002040000000000f2
:020000040000fa
:100400006f802000007f22000001880000000000b3
:100410000a00070011000700000020000000e000b3
:100420000200320000000200000000007a03020017
:10043000000000000040da000000fe004440a90077
:10044000400120000000e000030032000000200016
:10045000a00188004440a80000000600203f2000c2
:10046000010020001500370062004000e0804800d5
:10047000910188009001ba0062004000e0804800cd
:10048000910188009002ba0062004000e0804800bc
:100490000002eb006028e10004003a000059eb0084
:1004a0008301e900fdff3e00040037006128e10000
:1004b000010032000082eb00050007009101880076
:1004c0001001ba000200e000e7ff3a00000005005a
:1004d000910188008002780062004000e0804800be
:1004e0003559ba008301e900080032002559ba00e5
:1004f0008301e900050032000400e000f4ff32004f
:1005000015d9ba008301e900f1ff3a0000000600a6
:020000040000fa
:020000040002f8
:04aff800fff900005d
:020000040000fa
:020000040002f8
:04affc007f3f000093
:020000040000fa
:10000800fa030000fa030000fa030000fa030000f4
:10001800fa030000fa030000fa030000fa030000e4
:10002800fa030000fa030000fa030000fa030000d4
:10003800fa030000fa030000fa030000fa030000c4
:020000040000fa
:020000040000fa
:100510005479000070650000204d000065730000f4
:1005200073610000676500002048000065720000ec
:08053000652000003e00000000
:020000040000fa
:100538000000fa00d3e2a900d3c2a8002062a800f4
:10054800206820004011880021e2a8000040200017
:1005580010118800d5e2a800df82a900dfa2a80058
:100568003062a80020682000c011880031e2a8008d
:100578000040200090118800e1a2a8000080fa0045
:10058800000006000200fa00004f7800d5c2bf0044
:100598000044b2000004e000fcff3a0023c2bf00a0
:1005a800624060000004e000fcff3a001e00fb000f
:1005b800201188000080fa00000006000200fa00fe
:1005c800004f7800e1c2bf00704060000004e00006
:1005d800fcff3a0033c2bf00624060000004e00044
:1005e800fcff3a001e00fb00a01188000080fa0002
:1005f800000006000200fa00d5e2a90022c2bf00ee
:10060800614060000004e000fcff3200301180000f
:10061800004f7800d5e2a8001e00fb000080fa0019
:10062800000006000200fa00e1a2a90032c2bf00e1
:10063800614060000004e000fcff3200b01180005f
:10064800004f7800e1a2a8001e00fb000080fa001d
:10065800000006000400fa00100798000000eb00f4
:10066800000f7800060037009e0078001e009000fa
:100678000080400010407800c2ff07001e0fe8000d
:100688009e0078001e009000008040001040780016
:100698000004e000f4ff3a000080fa0000000600c1
:1006a8000400fa00100798000000eb00000f780023
:1006b800060037009e0078001e0090000080400071
:1006c80010407800bdff07001e0fe8009e0078006c
:1006d8001e00900000804000104078000004e000f8
:1006e800f4ff3a000080fa00000006000000fa005b
:1006f8003174200091407800f0c8b30000c0600059
:100708000044a00043e7b7005174200091407800ee
:1007180080cfb30000c0600045e7b7004567a90077
:100728005174200091407800f0c8b30000c0600008
:1007380045e7b700140007007dff07008028280060
:10074800c4ff0700abff070005e8b70005c8bf00f6
:100758009aff070005c8bf00ed4f5000f9ff3a00a7
:1007680080282800ceff0700aeff070005e8b70085
:1007780005c8bf0083ff070005c8bf00ed4f500044
:10078800f9ff3a00edff37000000fa000000eb0027
:10079800200888000000eb000008880041102000b5
:1007a80091407800f0ccb30000c0600004e1b700cd
:1007b80005e1a8000000eb00800888000111200076
:1007c8009140780000c3b30000c0700010e1b7008a
:0c07d80011e1a8000080fa0000000600fb
:020000040000fa
:1007e40000080000060000000000000000000000f7
:020000040000fa
:0407f4000000fe0003
:00000001FF
