:020000040000fa
:080000000002040000000000f2
:020000040000fa
:100008009a0200009a0200009a0200009a02000078
:100018009a0200009a0200009a0200009a02000068
:100028009a0200009a0200009a0200009a02000058
:100038009a0200009a0200009a0200009a02000048
:020000040000fa
:020000040000fa
:100400000f8020000e7f22000e01880000000000f7
:10041000000020000000e000020032000001200087
:10042000200288000c000700603820000100200036
:1004300011000700000020000000e0000200320070
:1004400000000200000000009e0202000000000008
:100450000040da000000fe004440a9000000200037
:100460000000e0000300320000002000a00188002e
:100470004440a80000000600910188008000780038
:100480000000eb0015003700e280400032a0b4000d
:100490009101ba00e280400032a0b4009102ba009b
:1004a000e280400032a0b4000002eb00472bde00e7
:1004b000f507b200602ce10004003a000059eb009f
:1004c0008301e900fdff3e00040037006128e100e0
:1004d000010032000082eb00040007001101ba00a5
:1004e0000200e000e8ff3a00000006003159ba00bf
:1004f0008301e9000c0032002159ba008301e900b0
:10050000080032000400e00003003a00e2804000ee
:1005100032a0b400f5ff370011d9ba008301e90019
:10052000faff3a008100e800e180400032a0b40008
:0c053000000006000040da000000fe00a1
:020000040000fa
:10053c000800fa00143a800004c0a00004d0a10006
:10054c0004e0a100143a8800243a80000480a10041
:10055c000490a10004a0a100243a88004567a900da
:10056c00243a800004c0a10004d0a10004e0a10042
:10057c00243a8800242c20001407980004f02f0043
:10058c00041688009e029000150278000440a0001a
:10059c00840a78009e029000150278000450a00096
:1005ac00840a78001e0290008002eb00050a780095
:1005bc000002eb00040f7800350037009e02780033
:1005cc00a4002000110009008482d80000027800e9
:1005dc00240798009e027800a40020001100090056
:1005ec008482d80001027800340798002e02900013
:1005fc00044278006f4262009e0290000482fb006d
:10060c006f0262009503780006ff2f0006836300db
:10061c0006027200840a78009e029000150278008f
:10062c000440a100840a78009e0290001502780014
:10063c000440a000840a78003e0290000442780036
:10064c006f4262009e0290000482fb006f02620007
:10065c009503780006ff2f000683630006027200e4
:10066c00840a78009e029000150278000450a100c4
:10067c00840a78009e029000150278000450a000b5
:10068c00840a7800401f2000060007001e0fe800b7
:10069c00340620009e027800848f5200c7ff36007b
:1006ac00c0ff37000600fa00200798000002eb009c
:1006bc00040f78000c0037000002eb0014079800c0
:1006cc0004003700000000001e0290000402e80045
:1006dc00140798009e0290002e029000848f520006
:1006ec00f8ff39001e0fe8002e0290009e027800e1
:1006fc00848f5200f0ff39000080fa0000000600e1
:020000040000fa
:04070c0000000000e9
:020000040000fa
:020000040002f8
:04aff800fff900005d
:00000001FF
