:020000040000fa
:080000000002040000000000f2
:020000040000fa
:100400008f8c2000007f2200000188000000000087
:100410000a00070011000700000020000000e000b3
:10042000020032000000020000000000880202000a
:10043000000000000040da000000fe004440a90077
:10044000000020000000e000030032000000200057
:10045000a00188004440a80000000600a02f200052
:10046000010020001500370062004000e0804800d5
:10047000910188009001ba0062004000e0804800cd
:10048000910188009002ba0062004000e0804800bc
:100490000002eb006028e10004003a000059eb0084
:1004a0008301e900fdff3e00040037006128e10000
:1004b000010032000082eb00050007009101880076
:1004c0001001ba000200e000e7ff3a00000005005a
:1004d000910188008002780062004000e0804800be
:1004e0003559ba008301e900080032002559ba00e5
:1004f0008301e900050032000400e000f4ff32004f
:1005000015d9ba008301e900f1ff3a0000000600a6
:020000040000fa
:020000040002f8
:04aff800fff900005d
:020000040000fa
:10000800fc020000fc020000fc020000fc020000f0
:10001800fc020000fc020000fc020000fc020000e0
:10002800fc020000fc020000fc020000fc020000d0
:10003800fc020000fc020000fc020000fc020000c0
:020000040000fa
:020000040000fa
:100510001400fa003174200091407800f0c8b30054
:1005200000c060000044a00043e7b7005174200001
:100530009140780080cfb30000c0600045e7b7006d
:100540004567a9005174200091407800f0c8b300bd
:1005500000c0600045e7b7001000200010079800b9
:1005600000f02f00001688001000200010079800ef
:100570000000eb00000f78000a0037001e01780031
:100580009e007800100020000100dd00800178004e
:10059000e400470002004100010040000308780029
:1005a0001e0fe800700020009e0f1000f3ff3600c1
:1005b0000000eb00000f7800000037001e007800fc
:1005c000e4004700000040006081780012079800b6
:1005d0001e009000101688001e0fe8008200200008
:1005e0009e0f1100f5ff3a000000eb00000f7800ad
:0405f000f2ff3700df
:020000040000fa
:0405f4000000000003
:020000040000fa
:0405f8000000fe0001
:00000001FF
