:020000040000fa
:080000000002040000000000f2
:020000040000fa
:100400008f8c2000007f2200000188000000000087
:100410000a00070011000700000020000000e000b3
:100420000200320000000200000000009c020200f6
:10043000000000000040da000000fe004440a90077
:10044000400120000000e000030032000000200016
:10045000a00188004440a80000000600a03220004f
:10046000010020001500370062004000e0804800d5
:10047000910188009001ba0062004000e0804800cd
:10048000910188009002ba0062004000e0804800bc
:100490000002eb006028e10004003a000059eb0084
:1004a0008301e900fdff3e00040037006128e10000
:1004b000010032000082eb00050007009101880076
:1004c0001001ba000200e000e7ff3a00000005005a
:1004d000910188008002780062004000e0804800be
:1004e0003559ba008301e900080032002559ba00e5
:1004f0008301e900050032000400e000f4ff32004f
:1005000015d9ba008301e900f1ff3a0000000600a6
:020000040000fa
:020000040002f8
:04aff800fff900005d
:020000040000fa
:100008002c0300002c0300002c0300002c0300002c
:100018002c0300002c0300002c0300002c0300001c
:100028002c0300002c0300002c0300002c0300000c
:100038002c0300002c0300002c0300002c030000fc
:020000040000fa
:020000040000fa
:100510000a000000140000001e0000002800000077
:10052000320000003c0000004600000050000000c7
:080530005a0000006400000005
:020000040000fa
:100538002a00fa003174200091407800f0c8b30016
:1005480000c060000044a00043e7b70051742000d9
:100558009140780080cfb30000c0600045e7b70045
:100568004567a9005174200091407800f0c8b30095
:1005780000c0600045e7b700f00047008028280069
:1005880009000900b01878004101b1004001b1002c
:1005980080c7b300604f9800b0072000600798003c
:1005a800a0fd2000910424004007980051079800fe
:1005b800410220008e80400040062000800878001c
:1005c800410220008e804000800c2000900098009e
:1005d800410220008e804000c0122000a000980038
:1005e80000f02f000016880000000000f00047000f
:1005f800b007200080087800f0004700801c200029
:1006080090089800f00047000000eb00a008980050
:1006180070004700900078003107980040022000e1
:100628000e00400090007800310798006e0090009e
:1006380030079800ee489000414798004e0090001f
:0c064800de009000008fbe00e7ff3700ce
:020000040000fa
:0406540000000000a2
:020000040000fa
:040658000000fe00a0
:00000001FF
